:100000000C9497000C94B6000C94B6000C94B600B7
:100010000C94B6000C94B6000C94B6000C94B60088
:100020000C94B8000C94B6000C94B6000C94B60076
:100030000C94B6000C94B6000C94B6000C94B60068
:100040000C94B6000C94B6000C94B6000C94B60058
:100050000C94B6000C94B6000C94B6000C94B60048
:100060000C94B6000C94B6000C94B6000C94B60038
:100070000C94B6000C94B6000C94B6000C94B60028
:100080000C94B6000C9484030C94B600C4039B0338
:100090009B039B039B039B039B039B03C4039B0347
:1000A0009B039B039B039B039B039B03CE039B032D
:1000B0009B039B039B039B039B039B039B039B0350
:1000C0009B039B039B039B039B039B03CE039B030D
:1000D0009B039B039B039B039B039B039B039B0330
:1000E0009B039B039B039B039B039B03E5039B03D6
:1000F0009B039B039B039B039B039B03E9039B03C2
:100100009B039B039B039B039B039B039B039B03FF
:100110009B039B039B039B039B039B03F7039B0393
:100120009B039B039B039B039B039B03B50311242E
:100130001FBECFEFD0E1DEBFCDBF11E0A0E0B1E048
:10014000E8E2FAE000E00BBF02C007900D92AE3F7C
:10015000B107D9F722E0AEEFB1E001C01D92A53999
:10016000B207E1F70E9481040C9412050C94000080
:100170001F920F920FB60F9211248F9381E08093FC
:1001800001028F910F900FBE0F901F90189584E180
:1001900080932D0241E06DE272E082E20E9416043B
:1001A0000E9412048111FCCF8FEA94E00197F1F7CD
:1001B00000C0000041E061E872E082E20E94270492
:1001C0000E9412048111FCCF80918102089580E287
:1001D00080932D0210922E0280915302909154022E
:1001E00090932F02809330021092310210920102FC
:1001F00045E06DE272E082E20E9416048091010205
:100200008823E1F3089580E480932D0210922E025A
:10021000809151029091520290932F02809330026C
:1002200010923102109232021092010246E06DE209
:1002300072E082E20E941604809101028823E1F3B9
:10024000089580E480932D0210922E028091550231
:100250009091560290932F028093300210923102B7
:1002600081E08093320246E06DE272E082E20E9419
:1002700016042FEF87EE93E0215080409040E1F785
:1002800000C0000008958091FE019091FF0181302F
:10029000910551F100F1029741F46091550270917E
:1002A00056028FE792E00E94ED046091400282E0E6
:1002B00092E00E94E00481E180932D0241E06DE232
:1002C00072E082E20E94160487ED94E00197F1F754
:1002D00000C000000895609153027091540283E0C1
:1002E00092E00E94ED04E1CF6091510270915202C0
:1002F0008EE392E00E94ED04D8CF83E280932D023A
:1003000081E080932E0242E06DE272E082E20E9480
:1003100016040E9412048111FCCF8FEA94E0019729
:10032000F1F700C0000048E066E372E082E20E945C
:1003300027040E9412048111FCCF089582E2809369
:100340002D0281E080932E0242E06DE272E082E2B3
:100350000E9416040E9412048111FCCF8FEA94E0DF
:100360000197F1F700C0000048E066E372E082E226
:100370000E9427040E9412048111FCCF089582E498
:1003800080932D0281E080932E0242E06DE272E0C4
:1003900082E20E9416040E9412048111FCCF8FEAAF
:1003A00094E00197F1F700C0000048E066E372E0D6
:1003B00082E20C94270483E480932D0281E08093F1
:1003C0002E0242E06DE272E082E20E9416040E9478
:1003D00012048111FCCF8FEA94E00197F1F700C07D
:1003E000000048E066E372E082E20C94270422E118
:1003F00020932D0210922E0290932F0280933002B0
:10040000709331026093320246E06DE272E082E264
:100410000E9416048FE39CE90197F1F700C00000E9
:10042000089583E092E00E94DA049093540280934E
:10043000530282E092E00E94D2048093400281E065
:1004400080932D0280E580932E0285E080932F0219
:1004500043E06DE272E082E20E9416042FEF8BED22
:1004600095E0215080409040E1F700C0000061E03D
:1004700070E081E090E00C94F7018EE392E00E943E
:10048000DA04909352028093510282E092E00E943B
:10049000D2048093400281E080932D0281E5809315
:1004A0002E0285E080932F0243E06DE272E082E24B
:1004B0000E9416042FEF8BED95E021508040904074
:1004C000E1F700C0000061E070E081E090E00C9492
:1004D000F7018FE792E00E94DA049093560280932E
:1004E000550282E092E00E94D2048093400281E0B3
:1004F00080932D0281E580932E0285E080932F0268
:1005000043E06DE272E082E20E9416042FEF8BED71
:1005100095E0215080409040E1F700C0000060E08D
:1005200070E082E093E30E94F70161E071E082E015
:1005300091E30E94F70161E070E081E090E00C94AB
:10054000F70180E180932D0241E06DE272E082E2EA
:100550000E9416040E9412048111FCCF8FEA94E0DD
:100560000197F1F700C0000048E061E472E082E228
:100570000E9427040E9412048111FCCF80E091E0C8
:100580000E94470489E391E00E94470482E791E0DA
:100590000E944704809142024AE065E072E090E0E8
:1005A0000E94AD0485E092E00E9447048FE791E04D
:1005B0000E944704809143024AE065E072E090E0C7
:1005C0000E94AD0485E092E00E9447048FE691E02E
:1005D0000C944704FF920F931F93CF93DF93CDB7F3
:1005E000DEB7A8970FB6F894DEBF0FBECDBF8DE87B
:1005F00091E00E9447048DE991E00E9447048091B8
:10060000360240E165E072E090E00E94AD0485E0D2
:1006100092E00E9447048FE691E00E9447048DEA31
:1006200091E00E944704809137024AE065E072E061
:1006300090E00E94AD0485E092E00E9447048FE6BE
:1006400091E00E94470409E312E0F801F0808DEB8D
:1006500091E00E9447044AE065E072E08F2D90E04F
:100660000E94AD0485E092E00E9447048FE691E08D
:100670000E9447048DEC91E00E944704809138026B
:1006800040E1BE016F5F7F4F90E00E94AD04CE015C
:1006900001960E9447048FE691E00E9447048DED89
:1006A00091E00E944704F801808140E1BE016F5F44
:1006B0007F4F90E00E94AD04CE0101960E94470456
:1006C0008FE691E00E9447048DEE91E00E9447047E
:1006D00080913A0240E165E072E090E00E94AD0452
:1006E00085E092E00E9447048FE691E00E94470473
:1006F000A8960FB6F894DEBF0FBECDBFDF91CF91A5
:100700001F910F91FF9008951F920F920FB60F92B5
:1007100011240BB60F922F933F938F939F93AF9318
:10072000BF93EF93FF938091710090E0FC013897A5
:10073000E135F105B0F0809171008093900284E082
:1007400080937400FF91EF91BF91AF919F918F9132
:100750003F912F910F900BBE0F900FBE0F901F90E7
:100760001895EA5BFF4F0C94A70480910002E0917A
:100770009102F0919202E80FF11D80917300808345
:1007800084E980937400DECF80919302809373009C
:100790001092000285E880937400D4CF809100020B
:1007A00090919402891760F7E0919102F091920282
:1007B00091E0980F90930002E80FF11D80818093E3
:1007C000730085E880937400BDCF85EA8093740040
:1007D000B9CF209100028091940230E090E001971F
:1007E00028173907DCF485EC80937400ABCFE091D7
:1007F0009102F09192028091000221E0280F209353
:100800000002E80FF11D80917300808380919402B3
:1008100030E090E00197281739072CF385E88093A2
:10082000740090CF8091740081700895909174004D
:1008300090FDFCCF8E7F8093930270939202609321
:1008400091024093940285EA8093740008959091F8
:10085000740090FDFCCF81608093930270939202AC
:10086000609391024093940285EA80937400089506
:100870008FEF80937300109271008CE08093700072
:1008800008955D9BFECF8CB95D9BFECF0895FC0162
:100890002081222349F031965D9BFECF2CB95D9BD0
:1008A000FECF21912111F8CF08959C01FC014491C4
:1008B000442369F00196F90124915D9BFECF2CB988
:1008C0005D9BFECF9C01FC0144914111F3CF089543
:1008D0008AB188698AB9E5E9F0E080818660808321
:1008E0001092900087E689B9089580E89EE303C0DE
:1008F0000197009721F05F9BFBCF8CB1089580E0BA
:1009000008950E943804139A1B9A129A1A9A8AB769
:1009100081688ABF89B7806889BF1F98179A1A9A19
:100920008FE193E00197F1F700C000001A9890EA78
:100930009A95F1F7179878940E94110286E097E251
:1009400090935402809353020E94E700FFCFEE0F72
:10095000FF1F0590F491E02D0994BB274A3031F434
:10096000992322F4BDE2909581959F4F0C94B90490
:10097000BB27FB015527AA27880F991FAA1FA41779
:1009800010F0A41B83955051B9F7A05DAA3308F06D
:10099000A95DA193009779F7B111B1931192CB01A1
:1009A0000C94F204E199FECF9FBB8EBBE09A99278D
:1009B0008DB30895A8E1B0E042E050E00C94040546
:1009C000262FE199FECF9FBB8EBB2DBB0FB6F894AF
:1009D000E29AE19A0FBE019608950E94E004272F43
:1009E0000C94E104DC01FC01672F71917723E1F79E
:1009F000329704C07C916D9370836291AE17BF07EC
:100A0000C8F30895DC01CB01FC01E199FECF06C0DB
:100A1000FFBBEEBBE09A31960DB20D9241505040B3
:080A2000B8F70895F894FFCF28
:100A2800536934373334205265763A20206C617329
:100A380074203220646967697473206F662070615E
:100A48007274206E6F2E2020206368697020726592
:100A58007620202020200A0D002020202020202081
:100A68002020202020202D2D2D2D2D2D2D2D2D2DFC
:100A78002D2D2D2D2D2D2D2D2D2D2D2D2D2D2D20AB
:100A880020202D2D2D2D2D2D2D2D20202020200A0C
:100A98000D00202020202020202020202020202081
:100AA80020202020202020202020202000464D5FCC
:100AB8005253515F5354415455533A200073746153
:100AC80074757320627974652020203A007265730A
:100AD80070312020202020202020203A00667265D6
:100AE80071202020202020202020203A00667265D6
:100AF80071206869676820202020203A00667265A6
:100B080071206C6F772020202020203A00727373A8
:0E0B180069202020202020202020203A0000EC
:00000001FF
